:100000000C94B3000C94D4000C94D4000C94D40041
:100010000C94D4000C9466020C9441020C94D4000D
:100020000C94D4000C94D4000C94D4000C94D40000
:100030000C94D4000C94D4000C94D4000C94D400F0
:100040000C94D4000C94D4000C94D4000C94D400E0
:100050000C94D4000C94D4000C94D4000C94D400D0
:100060000C94D4000C94E4040C94D4000C94D400AC
:100070000C94D4000C94D4000C94D4000C94D400B0
:100080000C94D4000C94D4000C94D4000C94D400A0
:100090000C94D4000C94D4000C94D4000C94D40090
:1000A0000C94D4000C94D4000C94D4000C94D40080
:1000B0000C94D4000C94D4000C94D4000C94D40070
:1000C0000C94D4000C94D4000C94D4000C94D40060
:1000D0000C94D4000C94D4000C94D4000C94D40050
:1000E0000C94D40007634236B79BD8A71A396856D8
:1000F00018AEBAAB558C1D3CB7CC5763BD6DEDFD4A
:10010000753EF6177231BF000000803F0800000006
:10011000BE922449123EABAAAA2ABECDCCCC4C3EFC
:1001200000000080BEABAAAAAA3E00000000BF00EB
:100130000000803F0000000000084178D3BB4387E7
:10014000D1133D190E3CC3BD4282AD2B3E68EC82FB
:1001500076BED98FE1A93E4C80EFFFBE01C4FF7F80
:100160003F000000000011241FBECFEFD1E2DEBF30
:10017000CDBF00E00CBF13E0A0E0B2E0E4EDF7E299
:1001800000E00BBF02C007900D92A831B107D9F76C
:1001900013E0A8E1B3E001C01D92A037B107E1F779
:1001A0000E947D090C94E8130C9400008CEC9AE0FA
:1001B000FC013197F1F74098419840E348B9429AE1
:1001C00020E036E3F9013197F1F74298FC013197CD
:1001D000F1F74098419848B9429AF9013197F1F7FF
:1001E0004298FC013197F1F74098419848B9429AFA
:1001F000F9013197F1F742980197F1F7409841984A
:1002000080E288B9429AC9010197F1F742980895AE
:1002100098B19F7098B928B1982F907F922B98B978
:1002200040984198429A20E036E3F9013197F1F77E
:10023000429898B19F7098B998B18295807F982B19
:1002400098B940984198429AC9010197F1F74298AC
:1002500008958CEC9AE00197F1F788E20E9408017A
:1002600081E00E94080186E00E9408018EE00E9461
:10027000080180E80E940801089598B19F7098B91C
:1002800028B1982F907F922B98B9409A4198429A22
:1002900020E036E3F9013197F1F7429898B19F7069
:1002A00098B998B18295807F982B98B9409A4198D7
:1002B000429AC9010197F1F74298089580E80E9497
:1002C00008010895CF93DF93EC0103C00E943D0124
:1002D000219688818823D1F7DF91CF9108958230CC
:1002E00069F0833018F48130A9F405C0833049F0F7
:1002F000843081F40BC0862F815805C0862F81542D
:1003000002C0862F8D560E9408010895862F8D52B7
:100310000E94080108950F931F93CF93DF938A01E2
:10032000E901882311F0662319F40E945E0102C0DE
:100330000E946F01C530D10571F4C80160E177E218
:100340000E941311CB01C096909341038093400308
:100350000E943D0105C0C430D10511F080E016C0F7
:10036000C80168EE73E00E941311CB01609349034A
:1003700090934A036AE070E00E941311C096909334
:100380006D0380936C030E943D0181E0C330D10571
:1003900021F0813011F080E016C0C80164E670E001
:1003A0000E941311CB016093490390934A036AE0C2
:1003B00070E00E941311C0969093680380936703C6
:1003C0000E943D0181E0C230D10521F0813011F061
:1003D00080E016C0C8016AE070E00E941311CB01F2
:1003E0006093490390934A036AE070E00E941311FE
:1003F000C0969093600380935F030E943D0181E06B
:10040000C130D10511F0813061F4C8016AE070E0BB
:100410000E941311C09690936B0380936A030E940D
:100420003D0126971CF085E40E943D01DF91CF91AC
:100430001F910F91089587B1876F87B988B1807830
:1004400088B9089510BA11BA1092070110920801E4
:1004500008956C98749A08956D98759A0895F89413
:10046000EAE6F0E0808182608083EC9A78940895D7
:10047000F894EAE6F0E0808188608083ED9A7894D1
:1004800008951F920F920FB60F9211248F939F938E
:10049000AF93BF9380911C0390911D03A0911E0305
:1004A000B0911F030196A11DB11D80931C03909371
:1004B0001D03A0931E03B0931F03BF91AF919F91A3
:1004C0008F910F900FBE0F901F9018951F920F9253
:1004D0000FB60F9211248F939F93AF93BF93809188
:1004E000180390911903A0911A03B0911B03019670
:1004F000A11DB11D8093180390931903A0931A03B3
:10050000B0931B03BF91AF919F918F910F900FBE3E
:100510000F901F90189581B18F6081B982B1807F53
:1005200082B9EAE0F1E0808188618083EBE0F1E06C
:10053000808188618083089587B1876F87B988B18A
:10054000807888B910BA11BA109207011092080188
:1005500081B18F6081B982B1807F82B9EAE0F1E038
:10056000808188618083EBE0F1E080818861808315
:100570006C98749A6D98759A0895EAE7F0E0108285
:1005800010927B0080E280937C0080E880BF86E848
:1005900080830895E1E2F1E010829FEF90932501BE
:1005A00081E08093240110922901909328011092F8
:1005B0002B0190932A0110922D0190932C0189EA2E
:1005C000809320018BE08083089592B1907F8F709B
:1005D000892B82B9089582B1807F866082B908959F
:1005E00082B1807F896082B9089582B1807F856001
:1005F00082B9089582B1807F8A6082B9089582B1FC
:10060000807F846082B9089582B1807F826082B9E0
:10061000089582B1807F816082B9089582B1807F20
:10062000886082B9089582B1807F82B90895EF927F
:10063000FF920F931F93CF93DF93A0E0B0E0BC0134
:10064000CD010E94A50E28E431EE42E850E40E945C
:10065000E70C0E94170AEB017B0100E010E010920A
:100660001C0310921D0310921E0310921F03109280
:1006700018031092190310921A0310921B03409151
:1006800018035091190381E061E023E030E00E94FB
:100690008B0140911C0350911D0381E065E023E034
:1006A00030E00E948B0181E069E0AE0123E030E0A0
:1006B0000E948B0180911C0390911D03A0911E0349
:1006C000B0911F038E159F05A007B10768F48091B4
:1006D000180390911903A0911A03B0911B038E1572
:1006E0009F05A007B10758F282B1807F82B9DF91E0
:1006F000CF911F910F91FF90EF900895EF92FF928D
:100700000F931F93A0E0B0E0BC01CD010E94A50EA5
:1007100025EE30ED4AEA50E40E94E70C0E94170AE9
:100720007B018C0110921C0310921D0310921E037A
:1007300010921F03409118035091190381E061E06A
:1007400023E030E00E948B0140911C0350911D0377
:1007500081E065E023E030E00E948B0181E069E008
:10076000A70123E030E00E948B0180911C0390914F
:100770001D03A0911E03B0911F03E816F9060A0796
:100780001B07C0F682B1807F82B91F910F91FF9045
:10079000EF90089522B1207F266022B90E947E0347
:1007A000089522B1207F296022B90E947E03089516
:1007B00022B1207F256022B90E941703089522B13B
:1007C000207F2A6022B90E941703089522B1207F5A
:1007D000246022B9880F991F0E941703089522B13F
:1007E000207F226022B9880F991F0E941703089565
:1007F00022B1207F216022B9880F991F0E94170320
:10080000089522B1207F286022B9880F991F0E9485
:1008100017030895982F883018F088E080937B00A4
:100820009770906290937C0080917A0080648093AE
:100830007A0080917A0084FFFCCF80917900109239
:100840007B000895982F483018F088E080937B0053
:100850004770406240937C0080917A00806480936E
:100860007A0080917A0084FFFCCF40917900109249
:100870007B0040934C03892F50E023E030E00E943E
:100880008B0108958093280160932A010895EF92C7
:10089000FF920F931F9390E0A0E0B0E0BC01CD0168
:1008A0000E94A50E2BED34EA42EA5AE30E94ED0BBA
:1008B0002AE037ED43EA5BE30E94C00B9B01AC01E9
:1008C00060E070E080E89FE30E94E70C2DE33AE0EF
:1008D00047ED5EE30E948F0B20E030E040E251E400
:1008E0000E94ED0B0E94510E882777FD8095982F6E
:1008F0000E94F30D7B018C0120E030E048EC53E4D2
:100900000E94930D18161CF460E971E004C0C80140
:10091000B7010E94510ECB011F910F91FF90EF90F4
:100920000895F8940E949C02F894EAE6F0E0808131
:1009300082608083EC9A7894F894EAE6F0E0808113
:1009400088608083ED9A7894EAE7F0E01082109254
:100950007B0080E280937C0080E880BF86E8808313
:10096000E1E2F1E010829FEF9093250181E0809316
:100970002401109229019093280110922B01909349
:100980002A0110922D0190932C0189EA8093200175
:100990008BE080837894089586B1886088B9089543
:1009A00086B1877F88B90895E1ECF0E0108210925B
:1009B000C00086E08093C20087E48093C400109258
:1009C000C50088E9808308951F920F920FB60F9299
:1009D0000BB60F921124DF92EF92FF920F931F93A9
:1009E0002F933F934F935F936F937F938F939F9337
:1009F000AF93BF93EF93FF93D090C6000D2D10E0FF
:100A0000C80162E370E00E9427119B018EEC9FEF0A
:100A1000689FF001699FF00D789FF00D1124E00FA1
:100A2000F11FCF0166E070E00E9427118B018AEF71
:100A30009FEF689F7001699FF00C789FF00C112464
:100A4000EE0EFF1EE0912603F0912703DF01A65D65
:100A5000BC4F2C93DF01AC5CBC4F6C93E15BFC4F53
:100A6000E08281E061E0A90123E030E00E948B0197
:100A700081E065E0A80123E030E00E948B0181E085
:100A800069E0A70123E030E00E948B01409126033A
:100A90005091270382E061E023E030E00E948B0167
:100AA00082E065E0A70123E030E00E948B018091A5
:100AB00026039091270301969093270380932603A2
:100AC00081E6D81639F4109225031092240340E0F1
:100AD00050E02FC082E6D81649F481E090E0909370
:100AE00025038093240341E050E023C083E6D81619
:100AF00049F48DE290E090930F0280930E024EE154
:100B000050E017C084E6D81649F48AE590E0909347
:100B10000F0280930E024CE350E00BC085E6D8161E
:100B200041F488E790E090930F0280930E024AE52B
:100B300050E081E061E023E030E00E948B01FF9112
:100B4000EF91BF91AF919F918F917F916F915F9145
:100B50004F913F912F911F910F91FF90EF90DF9058
:100B60000F900BBE0F900FBE0F901F901895BF9265
:100B7000CF92DF92EF92FF920F931F93E82E88E0BF
:100B800080937B0083E280937C0080917A00806474
:100B900080937A0080917A0084FFFCCF8091790065
:100BA00010927B008093200386E280937C008091EA
:100BB0007A00806480937A0080917A0084FFFCCF71
:100BC0008091790010927B008093210383E28093CF
:100BD0007C0080917A00806480937A0080917A0012
:100BE00084FFFCCFF090790010927B0082E280932A
:100BF0007C0080917A00806480937A0080917A00F2
:100C000084FFFCCF1091790010927B0081E28093E9
:100C10007C0080917A00806480937A0080917A00D1
:100C200084FFFCCF0091790010927B0081E061E0AD
:100C30004F2D50E023E030E00E948B0181E065E021
:100C4000412F50E023E030E00E948B01409163038C
:100C50005091640381E069E023E030E00E948B0161
:100C6000409165035091660382E061E023E030E04B
:100C70000E948B0182E065E04E2D50E023E030E0E1
:100C80000E948B0140910C0250910D0282E069E0BC
:100C900023E030E00E948B0180912003833820F410
:100CA00080912103803F30F482B1807F82B986B188
:100CB000886011C3113108F477C088E18F15D0F432
:100CC0000831C0F481E090E09093290380932803D9
:100CD00082B1807F866082B920910E02822F90912E
:100CE0000F0262E070E00E942711209328016093B8
:100CF0002A01EFC2093108F457C087E18F15C0F00F
:100D000082E090E0909329038093280382B1807F52
:100D1000866082B920910E02822F90910F0262E0CC
:100D200070E00E9427116093280120932A01D1C20C
:100D300088E1F816C9F182B1807F866082B910928D
:100D4000280110922A0186B1877F88B980912803F3
:100D5000909129038130910591F482B1807F866062
:100D600082B920910E02822F90910F0262E070E012
:100D70000E9427112093280160932A01ADC2029797
:100D800009F0AAC282B1807F866082B920910E02EA
:100D9000822F90910F0262E070E00E942711609311
:100DA000280120932A0198C2103108F086C2003130
:100DB00008F085C28FE08F1508F481C210922903D4
:100DC0001092280382B1807F82B980E197E224E10A
:100DD00031E0F9013197F1F70197D9F782B1807FBE
:100DE000866082B980916503909166030196909325
:100DF00066038093650381E065E0412F50E023E0C6
:100E000030E00E948B01409163035091640381E0C4
:100E100069E023E030E00E948B014091650350912E
:100E2000660382E061E023E030E00E948B0182E013
:100E300065E04E2D50E023E030E00E948B014091B0
:100E40000C0250910D0282E069E023E030E00E9444
:100E50008B0120916503309166038091630390912B
:100E600064032817390709F0AAC1809122039091E1
:100E70002303892B09F0A3C181E0E81609F06CC0B7
:100E800022E2D22E91E2E92ED0927C0080917A006B
:100E9000806480937A0080917A0084FFFCCF109167
:100EA000790010927B00E0927C0080917A0080644F
:100EB00080937A0080917A0084FFFCCF00917900C2
:100EC00010927B0081E061E04F2D50E023E030E0A4
:100ED0000E948B0181E065E0412F50E023E030E08B
:100EE0000E948B01409163035091640381E069E0AB
:100EF00023E030E00E948B0140916503509166032E
:100F000082E061E023E030E00E948B0182E065E056
:100F100041E050E023E030E00E948B0140910C0260
:100F200050910D0282E069E023E030E00E948B01E5
:100F300082B1807F866082B980910E028093280101
:100F400080932A01103118F4003108F49DCF8AE50E
:100F500090E00E94D80317C183E0E81609F09DC015
:100F600081E090E0909323038093220383E2C82ED4
:100F700002E2D02E11E2E12EC0927C0080917A0034
:100F8000806480937A0080917A0084FFFCCFF09097
:100F9000790010927B00D0927C0080917A0080646E
:100FA00080937A0080917A0084FFFCCF10917900C1
:100FB00010927B00E0927C0080917A0080648093A4
:100FC0007A0080917A0084FFFCCF00917900109222
:100FD0007B0081E065E0412F50E023E030E00E949B
:100FE0008B01409163035091640381E069E023E049
:100FF00030E00E948B01409165035091660382E0CE
:1010000061E023E030E00E948B0182E065E043E094
:1010100050E023E030E00E948B0140910C0250919F
:101020000D0282E069E023E030E00E948B0182B192
:10103000807F866082B980910E0280932801809320
:101040002A01103130F4003120F48FE08F1508F0C0
:1010500093CF8AE590E00E94DF031092660310921E
:10106000650380910C0290910D029093640380932C
:10107000630320916503309166038091630390912F
:1010800064032817390729F41092230310922203CE
:101090007AC080E00E94B705ECCFEE2009F073C063
:1010A000B3E2CB2EA2E2DA2EF1E2EF2EC0927C0068
:1010B00080917A00806480937A0080917A0084FF26
:1010C000FCCFF090790010927B00D0927C00809150
:1010D0007A00806480937A0080917A0084FFFCCF4C
:1010E0001091790010927B00E0927C0080917A0050
:1010F000806480937A0080917A0084FFFCCF009115
:10110000790010927B0081E065E0412F50E023E000
:1011100030E00E948B01409163035091640381E0B1
:1011200069E023E030E00E948B014091650350911B
:10113000660382E061E023E030E00E948B0182E000
:1011400065E040E050E023E030E00E948B014091F8
:101150000C0250910D0282E069E023E030E00E9431
:101160008B0182B1807F866082B980910E0280936C
:10117000280180932A01103130F4003120F48FE0EF
:101180008F1508F093CF82E069E0402F50E023E014
:1011900030E00E948B0180912203909123030197FC
:1011A00049F08091590390915A03019690935A0304
:1011B00080935903109266031092650373C0E3E2B3
:1011C000BE2E72E2C72E61E2D62EB0927C008091D4
:1011D0007A00806480937A0080917A0084FFFCCF4B
:1011E000F090790010927B00C0927C0080917A0090
:1011F000806480937A0080917A0084FFFCCF109104
:10120000790010927B00D0927C0080917A008064FB
:1012100080937A0080917A0084FFFCCF009179005E
:1012200010927B0081E065E0412F50E023E030E048
:101230000E948B01409163035091640381E069E057
:1012400023E030E00E948B014091650350916603DA
:1012500082E061E023E030E00E948B0182E065E003
:101260004E2D50E023E030E00E948B0140910C02B3
:1012700050910D0282E069E023E030E00E948B0192
:1012800082B1807F866082B980910E0280932801AE
:1012900080932A01103130F4003120F48FE08F1553
:1012A00008F093CF82B1807F866082B980910E0270
:1012B0008093280180932A010FC0123168F482B113
:1012C000807F866082B980910E028093280180938E
:1012D0002A0186B1877F88B984EF91E024E131E06B
:1012E000F9013197F1F70197D9F71F910F91FF900D
:1012F000EF90DF90CF90BF9008950E9491040E94DC
:10130000D6000E9429011092C1001092C00086E010
:101310008093C20087E48093C4001092C50088E9DE
:101320008093C10080E092E00E94620180E395E733
:1013300024E131E0F9013197F1F70197D9F786E01F
:1013400082B980910E028093280180932A01109225
:1013500066031092650310925A031092590380910C
:101360002403909125030197D1F4A0915903B091E2
:101370005A03FD01EC5CFC4F808180936303109263
:101380006403FD01E65DFC4F8081A15BBC4F9C9135
:1013900090930C0210920D020E94B705E0CF82B12B
:1013A000807F82B9DCCFEF92FF920F931F9390E082
:1013B000A0E0B0E0BC01CD010E94A50E2FEE39ECFB
:1013C00043E95FE30E9471119B01AC0160E070E0B2
:1013D00080E89FE30E94E70C2AE939EF4EE255E4EA
:1013E0000E94ED0B20E030E040E251E40E94ED0B62
:1013F0000E94510E882777FD8095982F0E94F30D4B
:101400007B018C0120E030E048E454E40E94930D1D
:1014100018161CF460E273E004C0C801B7010E9412
:10142000510ECB011F910F91FF90EF900895EF9215
:10143000FF920F931F937B018C0120E030E040E08E
:101440005FE40E94C30D88238CF0C801B70120E03F
:1014500030E040E05FE40E948F0B0E94510E9B0140
:10146000AC01205030404040504806C0C801B70190
:101470000E94510E9B01AC01B901CA011F910F914D
:10148000FF90EF900895A0E0B0E0E9E4FAE00C945A
:101490003A11DC012B01FA019C91923008F439C118
:1014A000EB018881823008F433C1943069F48430D0
:1014B00009F02FC111969C9111978981981709F411
:1014C00028C1A0E1B2E025C1843009F421C18230F5
:1014D000A9F4923009F01DC19A01AD0188E0EA013A
:1014E0000990AE01E90109929E018150C1F7E20124
:1014F000898111969C918923818308C1923009F4D6
:1015000007C112962D903C901397EB018A819B8125
:101510001496AD90BD90CD90DC901797EC80FD8037
:101520000E811F819101281B390BB90137FF04C0BF
:1015300066277727621B730B603271050CF061C060
:10154000121613066CF537014801062E04C0969456
:101550008794779467940A94D2F721E030E040E0D2
:1015600050E004C0220F331F441F551F6A95D2F765
:1015700021503040404050402E213F2140235123F4
:10158000211531054105510521F021E030E040E011
:1015900050E079018A01E628F728082919293CC07A
:1015A000232BD1F1260E371E35014601062E04C02D
:1015B00096948794779467940A94D2F721E030E068
:1015C00040E050E004C0220F331F441F551F6A95AE
:1015D000D2F721503040404050402A213B214C213D
:1015E0005D21211531054105510521F021E030E053
:1015F00040E050E059016A01A628B728C828D92838
:101600000BC0821593052CF01C01AA24BB24650194
:1016100003C0EE24FF24870111969C91D2011196FC
:101620008C91981709F445C0992339F0A8019701C6
:101630002A193B094C095D0906C0A60195012E191E
:101640003F09400B510B57FD08C0118233822282A3
:1016500024833583468357831DC081E08183338291
:10166000228288279927DC01821B930BA40BB50BE0
:1016700084839583A683B7830DC0220F331F441F35
:10168000551F248335834683578382819381019735
:10169000938382832481358146815781DA01C90190
:1016A0000197A109B1098F5F9F4FAF4FBF4328F347
:1016B0000BC0918333822282EA0CFB1C0C1D1D1D82
:1016C000E482F5820683178383E080832481358159
:1016D0004681578157FF1AC0C901AA2797FDA095D7
:1016E000BA2F81709070A070B0705695479537955D
:1016F0002795822B932BA42BB52B84839583A683CC
:10170000B78382819381019693838283DF0101C035
:10171000D201CD01CDB7DEB7E2E10C945611A0E2C3
:10172000B0E0E5E9FBE00C94461169837A838B8392
:101730009C832D833E834F835887E9E0EE2EF12C66
:10174000EC0EFD1ECE010196B7010E9442108E01E3
:101750000F5E1F4FCE010596B8010E9442108A8984
:1017600091E089278A8BC701B801AE01475E5F4FC0
:101770000E94430A0E946D0FA096E6E00C9462114D
:10178000A0E2B0E0E6ECFBE00C94461169837A83BA
:101790008B839C832D833E834F835887F9E0EF2E04
:1017A000F12CEC0EFD1ECE010196B7010E944210F5
:1017B0008E010F5E1F4FCE010596B8010E944210A8
:1017C000C701B801AE01475E5F4F0E94430A0E9405
:1017D0006D0FA096E6E00C946211A0E2B0E0E3EF9A
:1017E000FBE00C943A1169837A838B839C832D836D
:1017F0003E834F835887CE010196BE01675F7F4FBE
:101800000E944210CE010596BE016F5E7F4F0E947E
:1018100042109985923088F089898230C8F09430DE
:1018200019F4823051F404C0843029F4923081F4E8
:1018300080E192E0C6C0923049F420E09A858A891E
:10184000981321E02A87CE010996BBC0823049F463
:1018500020E09A858A89981321E02A8BCE0141964F
:10186000B0C02D843E844F8458886D887E888F88D0
:10187000988CEE24FF248701AA24BB24650140E054
:1018800050E060E070E0E0E0F0E0C1018170907055
:10189000892BE9F0E60CF71C081D191D9A01AB0114
:1018A0002A0D3B1D4C1D5D1D80E090E0A0E0B0E0E6
:1018B000E614F7040805190520F481E090E0A0E0A3
:1018C000B0E0BA01A901480F591F6A1F7B1FAA0C7B
:1018D000BB1CCC1CDD1C97FE08C081E090E0A0E0A2
:1018E000B0E0A82AB92ACA2ADB2A3196E032F105EB
:1018F00049F0660C771C881C991C569447943794C1
:101900002794C3CFFA85EA892B893C898B859C85EE
:10191000280F391F2E5F3F4F17C0CA01817090708A
:10192000892B61F016950795F794E79480E090E095
:10193000A0E0B0E8E82AF92A0A2B1B2B76956795D8
:10194000579547952F5F3F4F77FDE7CF0CC0440F6A
:10195000551F661F771F17FD4160EE0CFF1C001F0F
:10196000111F21503040403090E0590790E0690746
:1019700090E4790760F32B8F3C8FDB01CA018F77EE
:101980009070A070B07080349105A105B10561F42C
:1019900047FD0AC0E114F1040105110529F0405C7E
:1019A0005F4F6F4F7F4F40781A8EFE1711F081E026
:1019B0008A8F4D8F5E8F6F8F78A383E0898FCE01E2
:1019C00049960E946D0FA096E2E10C945611A8E191
:1019D000B0E0EDEEFCE00C94421169837A838B83D6
:1019E0009C832D833E834F835887B9E0EB2EF12CE7
:1019F000EC0EFD1ECE010196B7010E9442108E0131
:101A00000F5E1F4FCE010596B8010E944210298536
:101A1000223008F47EC03989323010F4B8017CC01D
:101A20008A859A8989278A87243011F0223031F4F7
:101A3000231709F06EC060E172E06EC0343039F4F3
:101A40001D861E861F86188A1C861B8604C032309F
:101A500021F484E08987B7015FC02B853C858B89A1
:101A60009C89281B390B3C872B87ED84FE840F85CE
:101A70001889AD88BE88CF88D88CEA14FB040C0581
:101A80001D0540F4EE0CFF1C001F111F21503040BB
:101A90003C872B8720E030E040E050E080E090E0A1
:101AA000A0E0B0E460E070E0EA14FB040C051D0562
:101AB00040F0282B392B4A2B5B2BEA18FB080C092A
:101AC0001D09B695A79597958795EE0CFF1C001FED
:101AD000111F6F5F7F4F6F31710531F7DA01C90157
:101AE0008F779070A070B07080349105A105B1051A
:101AF00061F427FD0AC0E114F1040105110529F084
:101B0000205C3F4F4F4F5F4F20782D873E874F8798
:101B1000588BBE01675F7F4FCB010E946D0F6896A7
:101B2000EAE00C945E11A8E1B0E0E9E9FDE00C9474
:101B3000461169837A838B839C832D833E834F83F5
:101B4000588789E0E82EF12CEC0EFD1ECE0101969F
:101B5000B7010E9442108E010F5E1F4FCE01059605
:101B6000B8010E9442108985823040F08989823014
:101B700028F0C701B8010E94BA1001C08FEF689623
:101B8000E6E00C946211A8E1B0E0E9ECFDE00C9411
:101B9000461169837A838B839C832D833E834F8395
:101BA000588789E0E82EF12CEC0EFD1ECE0101963F
:101BB000B7010E9442108E010F5E1F4FCE010596A5
:101BC000B8010E9442108985823040F089898230B4
:101BD00028F0C701B8010E94BA1001C08FEF6896C3
:101BE000E6E00C946211A8E0B0E0E9EFFDE00C94AF
:101BF00043119B01AC0183E08983DA01C901882785
:101C0000B7FD83959927AA27BB27B82E2115310543
:101C10004105510519F482E089833AC08823A9F06F
:101C2000203080E0380780E0480780E8580729F432
:101C300060E070E080E09FEC30C0EE24FF2487017C
:101C4000E21AF30A040B150B02C079018A018EE136
:101C5000C82ED12CDC82CB82ED82FE820F831887C6
:101C6000C801B7010E941E0F01971816190684F4C7
:101C7000082E04C0EE0CFF1C001F111F0A94D2F79F
:101C8000ED82FE820F831887C81AD90ADC82CB82C4
:101C9000BA82CE0101960E946D0F2896E9E00C945D
:101CA0005F11ACE0B0E0E7E5FEE00C944A11698317
:101CB0007A838B839C83CE010196BE016B5F7F4F3D
:101CC0000E9442108D81823061F1823050F1843067
:101CD00021F48E81882351F12EC02F81388537FD64
:101CE00020C06E812F3131051CF06623F9F023C02E
:101CF0008EE190E0821B930B29853A854B855C85AC
:101D000004C056954795379527958A95D2F766234F
:101D1000B1F050954095309521953F4F4F4F5F4F13
:101D20000EC020E030E040E050E009C02FEF3FEF70
:101D30004FEF5FE704C020E030E040E050E8B90139
:101D4000CA012C96E2E00C946611A8E0B0E0EBEA40
:101D5000FEE00C9442117B018C0161157105810537
:101D6000910519F482E0898360C083E089838EE164
:101D7000C82ED12CDC82CB82ED82FE820F831887A5
:101D8000C801B7010E941E0FFC013197F7FF3BC04D
:101D9000222733272E1B3F0B57016801022E04C058
:101DA000D694C794B794A7940A94D2F740E050E031
:101DB00060E070E081E090E0A0E0B0E004C0880F57
:101DC000991FAA1FBB1F2A95D2F70197A109B10934
:101DD0008E219F21A023B1230097A105B10521F0F9
:101DE00041E050E060E070E04A295B296C297D29E0
:101DF0004D835E836F8378878EE190E08E1B9F0B0F
:101E00009C838B8312C0309781F00E2E04C0EE0CA1
:101E1000FF1C001F111F0A94D2F7ED82FE820F8370
:101E20001887CE1ADF0ADC82CB821A82CE01019695
:101E30000E946D0F2896EAE00C945E11EF92FF92DB
:101E40000F931F937B018C0180E0E81680E0F80679
:101E500081E0080780E0180788F48FEFE816F104A6
:101E60000105110531F028F088E090E0A0E0B0E035
:101E700017C080E090E0A0E0B0E012C080E0E8167B
:101E800080E0F80680E0080781E0180728F088E184
:101E900090E0A0E0B0E004C080E190E0A0E0B0E01D
:101EA00020E230E040E050E0281B390B4A0B5B0B8E
:101EB00004C016950795F794E7948A95D2F7F70131
:101EC000E85EFD4F8081281B310941095109C90194
:101ED0001F910F91FF90EF900895DF92EF92FF9284
:101EE0000F931F93FC01E480F58006811781D18058
:101EF0008081823048F480E090E0A0E1B0E0E82A00
:101F0000F92A0A2B1B2BA5C0843009F49FC082300C
:101F100021F4EE24FF24870105C0E114F10401053A
:101F2000110519F4E0E0F0E096C0628173819FEF43
:101F3000623879070CF05BC022E83FEF261B370BB5
:101F40002A3131052CF020E030E040E050E02AC09A
:101F5000B801A701022E04C076956795579547955D
:101F60000A94D2F781E090E0A0E0B0E004C0880FCE
:101F7000991FAA1FBB1F2A95D2F70197A109B10982
:101F80008E219F21A023B1230097A105B10521F047
:101F900081E090E0A0E0B0E09A01AB01282B392B62
:101FA0004A2B5B2BDA01C9018F779070A070B0705B
:101FB00080349105A105B10539F427FF09C0205CE3
:101FC0003F4F4F4F5F4F04C0215C3F4F4F4F5F4F1C
:101FD000E0E0F0E02030A0E03A07A0E04A07A0E40B
:101FE0005A0710F0E1E0F0E079018A0127C060387B
:101FF000710564F5FB01E158FF4FD801C7018F77E8
:102000009070A070B07080349105A105B10539F4CD
:10201000E7FE0DC080E490E0A0E0B0E004C08FE3F4
:1020200090E0A0E0B0E0E80EF91E0A1F1B1F17FFAA
:1020300005C016950795F794E794319687E01695B5
:102040000795F794E7948A95D1F705C0EE24FF240D
:102050008701EFEFF0E06E2F679566276795902F69
:102060009F77D794DD24D7948E2F8695492F462BC2
:10207000582F5D29B701CA011F910F91FF90EF9072
:10208000DF900895FC01DB01408151812281622FA4
:102090006F7770E0221F2227221F9381892F880FDC
:1020A000822B282F30E0991F9927991F11969C9316
:1020B000119721153105A9F54115510561057105E6
:1020C00011F482E037C082E89FEF13969C938E93C1
:1020D00012979A01AB0167E0220F331F441F551F6F
:1020E0006A95D1F783E08C930DC0220F331F441FF4
:1020F000551F12968D919C911397019713969C935F
:102100008E931297203080E0380780E0480780E403
:10211000580758F314962D933D934D935C9317975E
:1021200008952F3F310579F4411551056105710579
:1021300019F484E08C93089564FF03C081E08C93CC
:1021400012C01C9210C02F57304013963C932E9310
:10215000129783E08C9387E0440F551F661F771F0B
:102160008A95D1F7706414964D935D936D937C932B
:10217000179708951F93DC01FB019C91923008F49E
:1021800047C08081823008F443C0943051F41196E6
:102190001C91843099F58181682F70E0611B710971
:1021A0003FC0843021F0923031F48230B9F1818126
:1021B000882389F12DC011961C9111978230F1F07E
:1021C00081811817D9F412962D913C911397828131
:1021D00093818217930794F028173907BCF014965F
:1021E0008D919D910D90BC91A02D248135814681CA
:1021F0005781281739074A075B0718F4112341F064
:102200000AC082179307A407B50740F4112319F0F9
:1022100061E070E005C06FEF7FEF02C060E070E04A
:10222000CB011F910895AA1BBB1B51E107C0AA1F38
:10223000BB1FA617B70710F0A61BB70B881F991F67
:102240005A95A9F780959095BC01CD01089597FB0B
:10225000092E07260AD077FD04D0E5DF06D000203E
:102260001AF4709561957F4F0895F6F790958195D2
:102270009F4F08952F923F924F925F926F927F925D
:102280008F929F92AF92BF92CF92DF92EF92FF9286
:102290000F931F93CF93DF93CDB7DEB7CA1BDB0B32
:1022A0000FB6F894DEBF0FBECDBF19942A883988C7
:1022B00048885F846E847D848C849B84AA84B984DE
:1022C000C884DF80EE80FD800C811B81AA81B981EA
:1022D000CE0FD11D0FB6F894DEBF0FBECDBFED01FE
:1022E0000895FA01EE0FFF1F30962105310599F18F
:1022F0006115710561F48038BFE39B0749F168946B
:102300009038810561F08038BFEF9B0741F0992339
:1023100042F5FF3FE1053105210511F1E8940894EC
:10232000E795D901AA2329F4AB2FBE2FF85FD0F38C
:1023300010C0FF5F70F4A695E0F7F73950F019F080
:10234000FF3A38F49F779F930CD00F9007FC90587A
:1023500008953EF049C060E070E080E89FE3089592
:102360004FE79F775F934F933F932F93D0D02F9159
:102370003F914F915F9131DA05C019F40EF02EC0F4
:102380007DC032C061D0C8F39638C0F707F80F920D
:10239000E8942BE33AEA48EB5FE738D10F920F92CB
:1023A0000F924DB75EB70F92F2D0E4EEF0E01FD07F
:1023B0004F915F91EF91FF91E595EE1FFF1F49F05F
:1023C000FE57E0684427EE0F441FFA95E1F7419568
:1023D000550B64D00F9007FE58C0089597F99F677A
:1023E00080E870E060E008959FEF80EC0895DF934F
:1023F000CF931F930F93FF92EF92DF927B018C019B
:10240000689405C0DA2EEF01FFD0FE01E894A59193
:102410002591359145915591AEF3EF0159D1FE01CA
:102420009701A801DA9479F7DF90EF90FF900F9170
:102430001F91CF91DF91089557FD9058440F551F7C
:1024400059F05F3F71F04795880F97FB991F61F036
:102450009F3F79F087950895121613061406551FAD
:10246000F2CF4695F1DF08C0161617061806991F19
:10247000F1CF86957105610508940895E894BB270E
:1024800066277727CB0197F908959B01AC0160E09F
:1024900070E080E89FE39BCAA1CF6DC1D5DFE8F370
:1024A0009923D9F3940F511DBBF39150504094F0F0
:1024B00059F0882332F0660F771F881F91505040E3
:1024C000C1F79E3F510544F7880F911D969587955A
:1024D00097F908955F3FACF0983E9CF0BB27869536
:1024E00077956795B79508F4B1609395C1F7BB0FE1
:1024F00058F711F460FFE8CF6F5F7F4F8F4F9F4F0A
:10250000E3CFBDCF0EF037C16FCF689467CF9CDFAC
:10251000C8F39923D1F3C6F3DF93CF931F930F939F
:10252000FF92C92FDD2788232AF02197660F771F96
:10253000881FDAF720E030E040E85FEB9FE388395E
:1025400020F0803E30F021968F771AD9ECE0F1E050
:1025500003C016D9E9E3F1E04ADF8B01BE01EC01CB
:10256000FB2E6F5771097595771F880B990B3BDB15
:1025700028E132E741E35FE347D0AF2D9801AE0198
:10258000FF900F911F91CF91DF91A2D010C1FA015E
:10259000DC01AA0FBB1F9B01AC01BF5728F4222707
:1025A0003327442750781FC0B75188F4AB2F00243D
:1025B000469537952795011CA395D2F3002069F025
:1025C000220F331F441FB395DAF30DD0A8C8613032
:1025D0007105A0E88A07B94630F49B01AC01662773
:1025E000772788279078309621F0208331834283A3
:1025F00053830895CED028F0D3D018F0952309F056
:10260000EDCEF2CE11243BCF17DFA0F3959FD1F38F
:10261000950F50E0551F629FF001729FBB27F00D90
:10262000B11D639FAA27F00DB11DAA1F649F6627E5
:10263000B00DA11D661F829F2227B00DA11D621F34
:10264000739FB00DA11D621F839FA00D611D221FEE
:10265000749F3327A00D611D231F849F600D211DD2
:10266000822F762F6A2F11249F5750408AF0E1F075
:1026700088234AF0EE0FFF1FBB1F661F771F881FBE
:1026800091505040A9F79E3F510570F0A7CEF7CE6C
:102690005F3FECF3983EDCF3869577956795B795A9
:1026A000F795E7959F5FC1F7FE2B880F911D9695D3
:1026B000879597F908956DD030F072D020F031F4FD
:1026C0009F3F11F41EF490CE0EF4E095E7FB86CE0A
:1026D000E92FB2DE80F3BA17620773078407950704
:1026E00018F071F49EF5CACE0EF4E0950B2EBA2FB9
:1026F000A02D0B01B90190010C01CA01A001112408
:10270000FF27591B99F0593F50F4503E68F11A16B3
:10271000F040A22F232F342F4427585FF3CF469544
:1027200037952795A795F0405395C9F77EF41F1666
:10273000BA0B620B730B840BBAF09150A1F0FF0F30
:10274000BB1F661F771F881FC2F70EC0BA0F621F1C
:10275000731F841F48F4879577956795B795F7950C
:102760009E3F08F0B3CF9395880F08F09927EE0F9E
:102770009795879508959F3F31F0915020F4879564
:1027800077956795B795880F911D9695879597F9D9
:10279000089500240A9416161706180609060895C7
:1027A00000240A9412161306140605060895092E2D
:1027B0000394000C11F4882352F0BB0F40F4BF2B9C
:1027C00011F460FF04C06F5F7F4F8F4F9F4F0895DC
:0427D000F894FFCFAB
:1027D40049523620495237204952380001008200BC
:1027E40000000000000000000001020203030303D4
:1027F400040404040404040405050505050505058D
:10280400050505050505050506060606060606066C
:102814000606060606060606060606060606060654
:10282400060606060606060607070707070707073C
:102834000707070707070707070707070707070724
:102844000707070707070707070707070707070714
:102854000707070707070707070707070707070704
:1028640007070707070707070808080808080808EC
:1028740008080808080808080808080808080808D4
:1028840008080808080808080808080808080808C4
:1028940008080808080808080808080808080808B4
:1028A40008080808080808080808080808080808A4
:1028B4000808080808080808080808080808080894
:1028C4000808080808080808080808080808080884
:1028D4000808080808080808080808080808080874
:0828E4000808080808080808AC
:00000001FF
